{
  "_format": "hh-sol-artifact-1",
  "contractName": "airdrop_factory",
  "sourceName": "contracts/factory.sol",
  "abi": [
    {
      "inputs": [],
      "stateMutability": "nonpayable",
      "type": "constructor"
    },
    {
      "inputs": [],
      "name": "admin",
      "outputs": [
        {
          "internalType": "address",
          "name": "",
          "type": "address"
        }
      ],
      "stateMutability": "view",
      "type": "function"
    },
    {
      "inputs": [
        {
          "internalType": "uint256",
          "name": "",
          "type": "uint256"
        }
      ],
      "name": "airdrop_list",
      "outputs": [
        {
          "internalType": "contract ERC20Verifier",
          "name": "contract_address",
          "type": "address"
        },
        {
          "internalType": "uint256",
          "name": "expiry",
          "type": "uint256"
        },
        {
          "internalType": "string",
          "name": "logo_url",
          "type": "string"
        },
        {
          "internalType": "string",
          "name": "description",
          "type": "string"
        },
        {
          "internalType": "string",
          "name": "title",
          "type": "string"
        },
        {
          "internalType": "uint256",
          "name": "per_user_amount",
          "type": "uint256"
        }
      ],
      "stateMutability": "view",
      "type": "function"
    },
    {
      "inputs": [
        {
          "internalType": "string",
          "name": "title",
          "type": "string"
        },
        {
          "internalType": "string",
          "name": "description",
          "type": "string"
        },
        {
          "internalType": "string",
          "name": "logo",
          "type": "string"
        },
        {
          "internalType": "uint256",
          "name": "expiry",
          "type": "uint256"
        },
        {
          "internalType": "uint256",
          "name": "peruseramount",
          "type": "uint256"
        },
        {
          "internalType": "address",
          "name": "token_address",
          "type": "address"
        },
        {
          "internalType": "uint256",
          "name": "total_airdrop_deposit",
          "type": "uint256"
        }
      ],
      "name": "create_airdrop",
      "outputs": [],
      "stateMutability": "nonpayable",
      "type": "function"
    },
    {
      "inputs": [],
      "name": "get_admin",
      "outputs": [
        {
          "internalType": "address",
          "name": "",
          "type": "address"
        }
      ],
      "stateMutability": "view",
      "type": "function"
    },
    {
      "inputs": [],
      "name": "get_airdrops",
      "outputs": [
        {
          "components": [
            {
              "internalType": "contract ERC20Verifier",
              "name": "contract_address",
              "type": "address"
            },
            {
              "internalType": "uint256",
              "name": "expiry",
              "type": "uint256"
            },
            {
              "internalType": "string",
              "name": "logo_url",
              "type": "string"
            },
            {
              "internalType": "string",
              "name": "description",
              "type": "string"
            },
            {
              "internalType": "string",
              "name": "title",
              "type": "string"
            },
            {
              "internalType": "uint256",
              "name": "per_user_amount",
              "type": "uint256"
            }
          ],
          "internalType": "struct airdrop_factory.Airdrop[]",
          "name": "",
          "type": "tuple[]"
        }
      ],
      "stateMutability": "view",
      "type": "function"
    },
    {
      "inputs": [],
      "name": "name",
      "outputs": [
        {
          "internalType": "string",
          "name": "",
          "type": "string"
        }
      ],
      "stateMutability": "view",
      "type": "function"
    },
    {
      "inputs": [
        {
          "internalType": "int256",
          "name": "",
          "type": "int256"
        }
      ],
      "name": "voters",
      "outputs": [
        {
          "internalType": "contract ERC20Verifier",
          "name": "",
          "type": "address"
        }
      ],
      "stateMutability": "view",
      "type": "function"
    }
  ],
  "bytecode": "0x608060405234801561001057600080fd5b50600280546001600160a01b03191633179055612621806100326000396000f3fe608060405234801561001057600080fd5b506004361061007d5760003560e01c806332057ea71161005b57806332057ea714610106578063324c73f71461011b57806354c7c61214610130578063f851a4401461014157600080fd5b806306fdde03146100825780631a24ddd7146100a05780631cc3fe07146100c5575b600080fd5b61008a610154565b6040516100979190610869565b60405180910390f35b6100b36100ae366004610883565b6101e2565b6040516100979695949392919061089c565b6100ee6100d3366004610883565b6003602052600090815260409020546001600160a01b031681565b6040516001600160a01b039091168152602001610097565b6101196101143660046109a0565b6103cd565b005b6101236105d7565b6040516100979190610a66565b6002546001600160a01b03166100ee565b6002546100ee906001600160a01b031681565b6001805461016190610b33565b80601f016020809104026020016040519081016040528092919081815260200182805461018d90610b33565b80156101da5780601f106101af576101008083540402835291602001916101da565b820191906000526020600020905b8154815290600101906020018083116101bd57829003601f168201915b505050505081565b600081815481106101f257600080fd5b60009182526020909120600690910201805460018201546002830180546001600160a01b03909316945090929161022890610b33565b80601f016020809104026020016040519081016040528092919081815260200182805461025490610b33565b80156102a15780601f10610276576101008083540402835291602001916102a1565b820191906000526020600020905b81548152906001019060200180831161028457829003601f168201915b5050505050908060030180546102b690610b33565b80601f01602080910402602001604051908101604052809291908181526020018280546102e290610b33565b801561032f5780601f106103045761010080835404028352916020019161032f565b820191906000526020600020905b81548152906001019060200180831161031257829003601f168201915b50505050509080600401805461034490610b33565b80601f016020809104026020016040519081016040528092919081815260200182805461037090610b33565b80156103bd5780601f10610392576101008083540402835291602001916103bd565b820191906000526020600020905b8154815290600101906020018083116103a057829003601f168201915b5050505050908060050154905086565b6000826040516103dc90610816565b6001600160a01b039091168152602001604051809103906000f080158015610408573d6000803e3d6000fd5b50905060006040518060c00160405280836001600160a01b031681526020018781526020018881526020018981526020018a8152602001868152509050836001600160a01b03166323b872dd338486670de0b6b3a764000061046a9190610b6d565b6040516001600160e01b031960e086901b1681526001600160a01b03938416600482015292909116602483015260448201526064016020604051808303816000875af11580156104be573d6000803e3d6000fd5b505050506040513d601f19601f820116820180604052508101906104e29190610b98565b506000805460018101825590805281517f290decd9548b62a8d60345a988386fc84ba6bc95484008f6362f93160ef3e563600690920291820180546001600160a01b0319166001600160a01b0390921691909117815560208301517f290decd9548b62a8d60345a988386fc84ba6bc95484008f6362f93160ef3e564830155604083015183927f290decd9548b62a8d60345a988386fc84ba6bc95484008f6362f93160ef3e56501906105959082610c09565b50606082015160038201906105aa9082610c09565b50608082015160048201906105bf9082610c09565b5060a082015181600501555050505050505050505050565b60606000805480602002602001604051908101604052809291908181526020016000905b8282101561080d5760008481526020908190206040805160c0810182526006860290920180546001600160a01b031683526001810154938301939093526002830180549293929184019161064e90610b33565b80601f016020809104026020016040519081016040528092919081815260200182805461067a90610b33565b80156106c75780601f1061069c576101008083540402835291602001916106c7565b820191906000526020600020905b8154815290600101906020018083116106aa57829003601f168201915b505050505081526020016003820180546106e090610b33565b80601f016020809104026020016040519081016040528092919081815260200182805461070c90610b33565b80156107595780601f1061072e57610100808354040283529160200191610759565b820191906000526020600020905b81548152906001019060200180831161073c57829003601f168201915b5050505050815260200160048201805461077290610b33565b80601f016020809104026020016040519081016040528092919081815260200182805461079e90610b33565b80156107eb5780601f106107c0576101008083540402835291602001916107eb565b820191906000526020600020905b8154815290600101906020018083116107ce57829003601f168201915b50505050508152602001600582015481525050815260200190600101906105fb565b50505050905090565b61192280610cca83390190565b6000815180845260005b818110156108495760208185018101518683018201520161082d565b506000602082860101526020601f19601f83011685010191505092915050565b60208152600061087c6020830184610823565b9392505050565b60006020828403121561089557600080fd5b5035919050565b60018060a01b038716815285602082015260c0604082015260006108c360c0830187610823565b82810360608401526108d58187610823565b905082810360808401526108e98186610823565b9150508260a0830152979650505050505050565b634e487b7160e01b600052604160045260246000fd5b600082601f83011261092457600080fd5b813567ffffffffffffffff8082111561093f5761093f6108fd565b604051601f8301601f19908116603f01168101908282118183101715610967576109676108fd565b8160405283815286602085880101111561098057600080fd5b836020870160208301376000602085830101528094505050505092915050565b600080600080600080600060e0888a0312156109bb57600080fd5b873567ffffffffffffffff808211156109d357600080fd5b6109df8b838c01610913565b985060208a01359150808211156109f557600080fd5b610a018b838c01610913565b975060408a0135915080821115610a1757600080fd5b50610a248a828b01610913565b955050606088013593506080880135925060a08801356001600160a01b0381168114610a4f57600080fd5b8092505060c0880135905092959891949750929550565b60006020808301818452808551808352604092508286019150828160051b87010184880160005b83811015610b2557888303603f19018552815180516001600160a01b0316845287810151888501528681015160c088860181905290610ace82870182610823565b91505060608083015186830382880152610ae88382610823565b9250505060808083015186830382880152610b038382610823565b60a0948501519790940196909652505094870194925090860190600101610a8d565b509098975050505050505050565b600181811c90821680610b4757607f821691505b602082108103610b6757634e487b7160e01b600052602260045260246000fd5b50919050565b8082028115828204841417610b9257634e487b7160e01b600052601160045260246000fd5b92915050565b600060208284031215610baa57600080fd5b8151801515811461087c57600080fd5b601f821115610c0457600081815260208120601f850160051c81016020861015610be15750805b601f850160051c820191505b81811015610c0057828155600101610bed565b5050505b505050565b815167ffffffffffffffff811115610c2357610c236108fd565b610c3781610c318454610b33565b84610bba565b602080601f831160018114610c6c5760008415610c545750858301515b600019600386901b1c1916600185901b178555610c00565b600085815260208120601f198616915b82811015610c9b57888601518255948401946001909101908401610c7c565b5085821015610cb95787850151600019600388901b60f8161c191681555b5050505050600190811b0190555056fe6080604052674563918244f4000060085534801561001c57600080fd5b5060405161192238038061192283398101604081905261003b916100b9565b61004433610069565b600780546001600160a01b0319166001600160a01b03929092169190911790556100e9565b600080546001600160a01b038381166001600160a01b0319831681178455604051919092169283917f8be0079c531659141344cd1fd0a4f28419497f9722a3daafe3b4186f6b6457e09190a35050565b6000602082840312156100cb57600080fd5b81516001600160a01b03811681146100e257600080fd5b9392505050565b61182a806100f86000396000f3fe608060405234801561001057600080fd5b50600436106100f55760003560e01c8063a872311411610097578063cb0e0d7d11610066578063cb0e0d7d14610264578063f143532614610284578063f2fde38b14610297578063fee207e6146102aa57600080fd5b8063a8723114146101ca578063b45c0fdf146101f3578063b68967e214610231578063c76d08451461024457600080fd5b80637042f36b116100d35780637042f36b14610175578063715018a61461018c5780638da5cb5b1461019657806396bf4741146101a757600080fd5b80632a2d0c47146100fa57806337ba95231461014057806363ec508f14610155575b600080fd5b610123610108366004610f64565b6005602052600090815260409020546001600160a01b031681565b6040516001600160a01b0390911681526020015b60405180910390f35b6101486102bd565b6040516101379190610f7d565b61015d600181565b6040516001600160401b039091168152602001610137565b61017e60085481565b604051908152602001610137565b610194610347565b005b6000546001600160a01b0316610123565b6101ba6101b5366004610fe6565b61035b565b604051610137949392919061104d565b6101236101d8366004610fe6565b6003602052600090815260409020546001600160a01b031681565b610221610201366004611091565b600160209081526000928352604080842090915290825290205460ff1681565b6040519015158152602001610137565b61022161023f366004611225565b61040e565b610257610252366004610fe6565b610671565b604051610137919061132a565b61017e61027236600461138a565b60066020526000908152604090205481565b61015d610292366004610f64565b6107cb565b6101946102a536600461138a565b610808565b6102216102b83660046113a7565b610881565b6060600480548060200260200160405190810160405280929190818152602001828054801561033d57602002820191906000526020600020906000905b82829054906101000a90046001600160401b03166001600160401b0316815260200190600801906020826007010492830192600103820291508084116102fa5790505b5050505050905090565b61034f6109fc565b6103596000610a56565b565b60026020819052600091825260409091208054600182015492820154600483018054929493919261038b906114ce565b80601f01602080910402602001604051908101604052809291908181526020018280546103b7906114ce565b80156104045780601f106103d957610100808354040283529160200191610404565b820191906000526020600020905b8154815290600101906020018083116103e757829003601f168201915b5050505050905084565b6001600160401b0385166000908152600360205260408120546001600160a01b03166104925760405162461bcd60e51b815260206004820152602860248201527f76616c696461746f72206973206e6f742073657420666f7220746869732072656044820152671c5d595cdd081a5960c21b60648201526084015b60405180910390fd5b6001600160401b03861660009081526002602052604081205490036105055760405162461bcd60e51b8152602060048201526024808201527f7175657279206973206e6f742073657420666f722074686973207265717565736044820152631d081a5960e21b6064820152608401610489565b6001600160401b03861660009081526003602052604090205461053490879087906001600160a01b0316610aa6565b6001600160401b03861660009081526003602090815260408083205460029092529182902091516319f8754160e21b81526001600160a01b03909116916367e1d5049161058c918991899189918991906004016115a8565b602060405180830381865afa1580156105a9573d6000803e3d6000fd5b505050506040513d601f19601f820116820180604052508101906105cd9190611695565b6106195760405162461bcd60e51b815260206004820152601b60248201527f70726f6f6620726573706f6e7365206973206e6f742076616c696400000000006044820152606401610489565b3360009081526001602081815260408084206001600160401b038b1685528252808420805460ff19169093179092556003905290205461066590879087906001600160a01b0316610b9c565b50600195945050505050565b6106a36040518060a0016040528060008152602001600081526020016000815260200160608152602001606081525090565b6001600160401b038216600090815260026020818152604092839020835160a08101855281548152600182015481840152928101548385015260038101805485518185028101850190965280865293949193606086019383018282801561072957602002820191906000526020600020905b815481526020019060010190808311610715575b50505050508152602001600482018054610742906114ce565b80601f016020809104026020016040519081016040528092919081815260200182805461076e906114ce565b80156107bb5780601f10610790576101008083540402835291602001916107bb565b820191906000526020600020905b81548152906001019060200180831161079e57829003601f168201915b5050505050815250509050919050565b600481815481106107db57600080fd5b9060005260206000209060049182820401919006600802915054906101000a90046001600160401b031681565b6108106109fc565b6001600160a01b0381166108755760405162461bcd60e51b815260206004820152602660248201527f4f776e61626c653a206e6577206f776e657220697320746865207a65726f206160448201526564647265737360d01b6064820152608401610489565b61087e81610a56565b50565b600061088b6109fc565b6001600160401b0384166000908152600360205260409020546001600160a01b031661090f576004805460018101825560008290529081047f8a35acfbc15ff81a39ae7d344fd709f28e8600b4aa8c65c6b64bfe7fe36bd19b0180546001600160401b0380881660086003909516949094026101000a938402930219169190911790555b60608201516001600160401b038516600090815260026020908152604090912082516109449360039092019290910190610f04565b506040808301516001600160401b03861660009081526002602081905292902091820155608083015160049091019061097d9082611706565b506020808301516001600160401b03861660009081526002909252604090912060018101919091558251815560808301516004909101906109be9082611706565b50506001600160401b038316600090815260036020526040902080546001600160a01b0384166001600160a01b031990911617905560019392505050565b6000546001600160a01b031633146103595760405162461bcd60e51b815260206004820181905260248201527f4f776e61626c653a2063616c6c6572206973206e6f7420746865206f776e65726044820152606401610489565b600080546001600160a01b038381166001600160a01b0319831681178455604051919092169283917f8be0079c531659141344cd1fd0a4f28419497f9722a3daafe3b4186f6b6457e09190a35050565b6000610b2b83836001600160a01b0316639f442afa6040518163ffffffff1660e01b8152600401602060405180830381865afa158015610aea573d6000803e3d6000fd5b505050506040513d601f19601f82011682018060405250810190610b0e91906117c5565b81518110610b1e57610b1e6117de565b6020026020010151610d77565b9050336001600160a01b03821614610b965760405162461bcd60e51b815260206004820152602860248201527f6164647265737320696e2070726f6f66206973206e6f7420612073656e646572604482015267206164647265737360c01b6064820152608401610489565b50505050565b6001600160401b0383166001148015610bc2575033600090815260066020526040902054155b610c205760405162461bcd60e51b815260206004820152602960248201527f70726f6f662063616e206e6f74206265207375626d6974746564206d6f7265206044820152687468616e206f6e636560b81b6064820152608401610489565b600082826001600160a01b0316639f442afa6040518163ffffffff1660e01b8152600401602060405180830381865afa158015610c61573d6000803e3d6000fd5b505050506040513d601f19601f82011682018060405250810190610c8591906117c5565b81518110610c9557610c956117de565b602090810291909101810151600081815260059092526040909120549091506001600160a01b0316610b96576007546008546040516323b872dd60e01b815230600482015233602482015260448101919091526001600160a01b03909116906323b872dd906064016020604051808303816000875af1158015610d1c573d6000803e3d6000fd5b505050506040513d601f19601f82011682018060405250810190610d409190611695565b50336000818152600660209081526040808320859055938252600590529190912080546001600160a01b0319169091179055505050565b6000610ed4610ecd610ec88460008190506008817eff00ff00ff00ff00ff00ff00ff00ff00ff00ff00ff00ff00ff00ff00ff00ff16901b6008827fff00ff00ff00ff00ff00ff00ff00ff00ff00ff00ff00ff00ff00ff00ff00ff0016901c1790506010817dffff0000ffff0000ffff0000ffff0000ffff0000ffff0000ffff0000ffff16901b6010827fffff0000ffff0000ffff0000ffff0000ffff0000ffff0000ffff0000ffff000016901c1790506020817bffffffff00000000ffffffff00000000ffffffff00000000ffffffff16901b6020827fffffffff00000000ffffffff00000000ffffffff00000000ffffffff0000000016901c17905060408177ffffffffffffffff0000000000000000ffffffffffffffff16901b60408277ffffffffffffffff0000000000000000ffffffffffffffff1916901c179050608081901b608082901c179050919050565b610eda565b6014015190565b92915050565b60408051602080825281830190925260609160208201818036833750505060208101929092525090565b828054828255906000526020600020908101928215610f3f579160200282015b82811115610f3f578251825591602001919060010190610f24565b50610f4b929150610f4f565b5090565b5b80821115610f4b5760008155600101610f50565b600060208284031215610f7657600080fd5b5035919050565b6020808252825182820181905260009190848201906040850190845b81811015610fbe5783516001600160401b031683529284019291840191600101610f99565b50909695505050505050565b80356001600160401b0381168114610fe157600080fd5b919050565b600060208284031215610ff857600080fd5b61100182610fca565b9392505050565b60008151808452602060005b8281101561102f578481018201518682018301528101611014565b506000858301820152601f909101601f191690930190920192915050565b8481528360208201528260408201526080606082015260006110726080830184611008565b9695505050505050565b6001600160a01b038116811461087e57600080fd5b600080604083850312156110a457600080fd5b82356110af8161107c565b91506110bd60208401610fca565b90509250929050565b634e487b7160e01b600052604160045260246000fd5b60405160a081016001600160401b03811182821017156110fe576110fe6110c6565b60405290565b604080519081016001600160401b03811182821017156110fe576110fe6110c6565b604051601f8201601f191681016001600160401b038111828210171561114e5761114e6110c6565b604052919050565b600082601f83011261116757600080fd5b813560206001600160401b03821115611182576111826110c6565b8160051b611191828201611126565b92835284810182019282810190878511156111ab57600080fd5b83870192505b848310156111ca578235825291830191908301906111b1565b979650505050505050565b600082601f8301126111e657600080fd5b6111ee611104565b80604084018581111561120057600080fd5b845b8181101561121a578035845260209384019301611202565b509095945050505050565b6000806000806000610140868803121561123e57600080fd5b61124786610fca565b94506020808701356001600160401b0381111561126357600080fd5b61126f89828a01611156565b955050604061128089828a016111d5565b945088609f89011261129157600080fd5b611299611104565b806101008a018b8111156112ac57600080fd5b60808b015b818110156112d0576112c38d826111d5565b84529285019284016112b1565b508196506112de8c826111d5565b955050505050509295509295909350565b600081518084526020808501945080840160005b8381101561131f57815187529582019590820190600101611303565b509495945050505050565b602081528151602082015260208201516040820152604082015160608201526000606083015160a0608084015261136460c08401826112ef565b90506080840151601f198483030160a08501526113818282611008565b95945050505050565b60006020828403121561139c57600080fd5b81356110018161107c565b6000806000606084860312156113bc57600080fd5b6113c584610fca565b92506020808501356113d68161107c565b925060408501356001600160401b03808211156113f257600080fd5b9086019060a0828903121561140657600080fd5b61140e6110dc565b8235815283830135848201526040830135604082015260608301358281111561143657600080fd5b6114428a828601611156565b60608301525060808301358281111561145a57600080fd5b80840193505088601f84011261146f57600080fd5b823582811115611481576114816110c6565b611493601f8201601f19168601611126565b925080835289858286010111156114a957600080fd5b8085850186850137600085828501015250816080820152809450505050509250925092565b600181811c908216806114e257607f821691505b60208210810361150257634e487b7160e01b600052602260045260246000fd5b50919050565b8060005b6002811015610b9657815184526020938401939091019060010161150c565b60008154611538816114ce565b808552602060018381168015611555576001811461156f5761159d565b60ff1985168884015283151560051b88018301955061159d565b866000528260002060005b858110156115955781548a820186015290830190840161157a565b890184019650505b505050505092915050565b60006101408083526115bc818401896112ef565b905060206115cc81850189611508565b606084018760005b60028110156115fb576115e8838351611508565b60409290920191908301906001016115d4565b50505061160b60e0850187611508565b83820361012085015284548252600180860154828401526002860154604084015260a0606084018190526003870180549185018290526000908152838120929160c08601905b8083101561166e5784548252938301939183019190850190611651565b5085810360808701526116848160048b0161152b565b9d9c50505050505050505050505050565b6000602082840312156116a757600080fd5b8151801515811461100157600080fd5b601f82111561170157600081815260208120601f850160051c810160208610156116de5750805b601f850160051c820191505b818110156116fd578281556001016116ea565b5050505b505050565b81516001600160401b0381111561171f5761171f6110c6565b6117338161172d84546114ce565b846116b7565b602080601f83116001811461176857600084156117505750858301515b600019600386901b1c1916600185901b1785556116fd565b600085815260208120601f198616915b8281101561179757888601518255948401946001909101908401611778565b50858210156117b55787850151600019600388901b60f8161c191681555b5050505050600190811b01905550565b6000602082840312156117d757600080fd5b5051919050565b634e487b7160e01b600052603260045260246000fdfea264697066735822122065c3c02dd8e70d4a09e474aad41b14d9b428731251d9478f105b3b5157e281ed64736f6c63430008110033a26469706673582212207934db51a3fe6688097ae18ceed94567935a0739a031dded6201457b51d8fb7664736f6c63430008110033",
  "linkReferences": {},
  "deployedLinkReferences": {}
}