{
  "_format": "hh-sol-artifact-1",
  "contractName": "ERC20Verifier",
  "sourceName": "contracts/ERC20Verifier.sol",
  "abi": [
    {
      "inputs": [
        {
          "internalType": "address",
          "name": "token_address",
          "type": "address"
        }
      ],
      "stateMutability": "nonpayable",
      "type": "constructor"
    },
    {
      "anonymous": false,
      "inputs": [
        {
          "indexed": true,
          "internalType": "address",
          "name": "previousOwner",
          "type": "address"
        },
        {
          "indexed": true,
          "internalType": "address",
          "name": "newOwner",
          "type": "address"
        }
      ],
      "name": "OwnershipTransferred",
      "type": "event"
    },
    {
      "inputs": [],
      "name": "TOKEN_AMOUNT_FOR_AIRDROP_PER_ID",
      "outputs": [
        {
          "internalType": "uint256",
          "name": "",
          "type": "uint256"
        }
      ],
      "stateMutability": "view",
      "type": "function"
    },
    {
      "inputs": [],
      "name": "TRANSFER_REQUEST_ID",
      "outputs": [
        {
          "internalType": "uint64",
          "name": "",
          "type": "uint64"
        }
      ],
      "stateMutability": "view",
      "type": "function"
    },
    {
      "inputs": [
        {
          "internalType": "address",
          "name": "",
          "type": "address"
        }
      ],
      "name": "addressToId",
      "outputs": [
        {
          "internalType": "uint256",
          "name": "",
          "type": "uint256"
        }
      ],
      "stateMutability": "view",
      "type": "function"
    },
    {
      "inputs": [],
      "name": "getSupportedRequests",
      "outputs": [
        {
          "internalType": "uint64[]",
          "name": "arr",
          "type": "uint64[]"
        }
      ],
      "stateMutability": "view",
      "type": "function"
    },
    {
      "inputs": [
        {
          "internalType": "uint64",
          "name": "requestId",
          "type": "uint64"
        }
      ],
      "name": "getZKPRequest",
      "outputs": [
        {
          "components": [
            {
              "internalType": "uint256",
              "name": "schema",
              "type": "uint256"
            },
            {
              "internalType": "uint256",
              "name": "slotIndex",
              "type": "uint256"
            },
            {
              "internalType": "uint256",
              "name": "operator",
              "type": "uint256"
            },
            {
              "internalType": "uint256[]",
              "name": "value",
              "type": "uint256[]"
            },
            {
              "internalType": "string",
              "name": "circuitId",
              "type": "string"
            }
          ],
          "internalType": "struct ICircuitValidator.CircuitQuery",
          "name": "",
          "type": "tuple"
        }
      ],
      "stateMutability": "view",
      "type": "function"
    },
    {
      "inputs": [
        {
          "internalType": "uint256",
          "name": "",
          "type": "uint256"
        }
      ],
      "name": "idToAddress",
      "outputs": [
        {
          "internalType": "address",
          "name": "",
          "type": "address"
        }
      ],
      "stateMutability": "view",
      "type": "function"
    },
    {
      "inputs": [],
      "name": "owner",
      "outputs": [
        {
          "internalType": "address",
          "name": "",
          "type": "address"
        }
      ],
      "stateMutability": "view",
      "type": "function"
    },
    {
      "inputs": [
        {
          "internalType": "address",
          "name": "",
          "type": "address"
        },
        {
          "internalType": "uint64",
          "name": "",
          "type": "uint64"
        }
      ],
      "name": "proofs",
      "outputs": [
        {
          "internalType": "bool",
          "name": "",
          "type": "bool"
        }
      ],
      "stateMutability": "view",
      "type": "function"
    },
    {
      "inputs": [],
      "name": "renounceOwnership",
      "outputs": [],
      "stateMutability": "nonpayable",
      "type": "function"
    },
    {
      "inputs": [
        {
          "internalType": "uint64",
          "name": "",
          "type": "uint64"
        }
      ],
      "name": "requestQueries",
      "outputs": [
        {
          "internalType": "uint256",
          "name": "schema",
          "type": "uint256"
        },
        {
          "internalType": "uint256",
          "name": "slotIndex",
          "type": "uint256"
        },
        {
          "internalType": "uint256",
          "name": "operator",
          "type": "uint256"
        },
        {
          "internalType": "string",
          "name": "circuitId",
          "type": "string"
        }
      ],
      "stateMutability": "view",
      "type": "function"
    },
    {
      "inputs": [
        {
          "internalType": "uint64",
          "name": "",
          "type": "uint64"
        }
      ],
      "name": "requestValidators",
      "outputs": [
        {
          "internalType": "contract ICircuitValidator",
          "name": "",
          "type": "address"
        }
      ],
      "stateMutability": "view",
      "type": "function"
    },
    {
      "inputs": [
        {
          "internalType": "uint64",
          "name": "requestId",
          "type": "uint64"
        },
        {
          "internalType": "contract ICircuitValidator",
          "name": "validator",
          "type": "address"
        },
        {
          "components": [
            {
              "internalType": "uint256",
              "name": "schema",
              "type": "uint256"
            },
            {
              "internalType": "uint256",
              "name": "slotIndex",
              "type": "uint256"
            },
            {
              "internalType": "uint256",
              "name": "operator",
              "type": "uint256"
            },
            {
              "internalType": "uint256[]",
              "name": "value",
              "type": "uint256[]"
            },
            {
              "internalType": "string",
              "name": "circuitId",
              "type": "string"
            }
          ],
          "internalType": "struct ICircuitValidator.CircuitQuery",
          "name": "query",
          "type": "tuple"
        }
      ],
      "name": "setZKPRequest",
      "outputs": [
        {
          "internalType": "bool",
          "name": "",
          "type": "bool"
        }
      ],
      "stateMutability": "nonpayable",
      "type": "function"
    },
    {
      "inputs": [
        {
          "internalType": "uint64",
          "name": "requestId",
          "type": "uint64"
        },
        {
          "internalType": "uint256[]",
          "name": "inputs",
          "type": "uint256[]"
        },
        {
          "internalType": "uint256[2]",
          "name": "a",
          "type": "uint256[2]"
        },
        {
          "internalType": "uint256[2][2]",
          "name": "b",
          "type": "uint256[2][2]"
        },
        {
          "internalType": "uint256[2]",
          "name": "c",
          "type": "uint256[2]"
        }
      ],
      "name": "submitZKPResponse",
      "outputs": [
        {
          "internalType": "bool",
          "name": "",
          "type": "bool"
        }
      ],
      "stateMutability": "nonpayable",
      "type": "function"
    },
    {
      "inputs": [
        {
          "internalType": "uint256",
          "name": "",
          "type": "uint256"
        }
      ],
      "name": "supportedRequests",
      "outputs": [
        {
          "internalType": "uint64",
          "name": "",
          "type": "uint64"
        }
      ],
      "stateMutability": "view",
      "type": "function"
    },
    {
      "inputs": [
        {
          "internalType": "address",
          "name": "newOwner",
          "type": "address"
        }
      ],
      "name": "transferOwnership",
      "outputs": [],
      "stateMutability": "nonpayable",
      "type": "function"
    }
  ],
  "bytecode": "0x6080604052674563918244f400006008553480156200001d57600080fd5b5060405162002f4638038062002f468339818101604052810190620000439190620001e1565b6200006362000057620000ab60201b60201c565b620000b360201b60201c565b80600760006101000a81548173ffffffffffffffffffffffffffffffffffffffff021916908373ffffffffffffffffffffffffffffffffffffffff1602179055505062000213565b600033905090565b60008060009054906101000a900473ffffffffffffffffffffffffffffffffffffffff169050816000806101000a81548173ffffffffffffffffffffffffffffffffffffffff021916908373ffffffffffffffffffffffffffffffffffffffff1602179055508173ffffffffffffffffffffffffffffffffffffffff168173ffffffffffffffffffffffffffffffffffffffff167f8be0079c531659141344cd1fd0a4f28419497f9722a3daafe3b4186f6b6457e060405160405180910390a35050565b600080fd5b600073ffffffffffffffffffffffffffffffffffffffff82169050919050565b6000620001a9826200017c565b9050919050565b620001bb816200019c565b8114620001c757600080fd5b50565b600081519050620001db81620001b0565b92915050565b600060208284031215620001fa57620001f962000177565b5b60006200020a84828501620001ca565b91505092915050565b612d2380620002236000396000f3fe608060405234801561001057600080fd5b50600436106100f55760003560e01c8063a872311411610097578063cb0e0d7d11610066578063cb0e0d7d1461029f578063f1435326146102cf578063f2fde38b146102ff578063fee207e61461031b576100f5565b8063a8723114146101df578063b45c0fdf1461020f578063b68967e21461023f578063c76d08451461026f576100f5565b80637042f36b116100d35780637042f36b14610166578063715018a6146101845780638da5cb5b1461018e57806396bf4741146101ac576100f5565b80632a2d0c47146100fa57806337ba95231461012a57806363ec508f14610148575b600080fd5b610114600480360381019061010f91906115b1565b61034b565b604051610121919061161f565b60405180910390f35b61013261037e565b60405161013f919061170c565b60405180910390f35b61015061040a565b60405161015d919061173d565b60405180910390f35b61016e61040f565b60405161017b9190611767565b60405180910390f35b61018c610415565b005b610196610429565b6040516101a3919061161f565b60405180910390f35b6101c660048036038101906101c191906117ae565b610452565b6040516101d6949392919061186b565b60405180910390f35b6101f960048036038101906101f491906117ae565b61050a565b6040516102069190611916565b60405180910390f35b6102296004803603810190610224919061195d565b61053d565b60405161023691906119b8565b60405180910390f35b61025960048036038101906102549190611c7d565b61056c565b60405161026691906119b8565b60405180910390f35b610289600480360381019061028491906117ae565b6108eb565b6040516102969190611e9b565b60405180910390f35b6102b960048036038101906102b49190611ebd565b610a34565b6040516102c69190611767565b60405180910390f35b6102e960048036038101906102e491906115b1565b610a4c565b6040516102f6919061173d565b60405180910390f35b61031960048036038101906103149190611ebd565b610a8a565b005b610335600480360381019061033091906120ab565b610b0d565b60405161034291906119b8565b60405180910390f35b60056020528060005260406000206000915054906101000a900473ffffffffffffffffffffffffffffffffffffffff1681565b6060600480548060200260200160405190810160405280929190818152602001828054801561040057602002820191906000526020600020906000905b82829054906101000a900467ffffffffffffffff1667ffffffffffffffff16815260200190600801906020826007010492830192600103820291508084116103bb5790505b5050505050905090565b600181565b60085481565b61041d610dae565b6104276000610e2c565b565b60008060009054906101000a900473ffffffffffffffffffffffffffffffffffffffff16905090565b600260205280600052604060002060009150905080600001549080600101549080600201549080600401805461048790612149565b80601f01602080910402602001604051908101604052809291908181526020018280546104b390612149565b80156105005780601f106104d557610100808354040283529160200191610500565b820191906000526020600020905b8154815290600101906020018083116104e357829003601f168201915b5050505050905084565b60036020528060005260406000206000915054906101000a900473ffffffffffffffffffffffffffffffffffffffff1681565b60016020528160005260406000206020528060005260406000206000915091509054906101000a900460ff1681565b60008073ffffffffffffffffffffffffffffffffffffffff16600360008867ffffffffffffffff1667ffffffffffffffff16815260200190815260200160002060009054906101000a900473ffffffffffffffffffffffffffffffffffffffff1673ffffffffffffffffffffffffffffffffffffffff1603610623576040517f08c379a000000000000000000000000000000000000000000000000000000000815260040161061a906121ec565b60405180910390fd5b6000600260008867ffffffffffffffff1667ffffffffffffffff1681526020019081526020016000206000015403610690576040517f08c379a00000000000000000000000000000000000000000000000000000000081526004016106879061227e565b60405180910390fd5b6106e28686600360008a67ffffffffffffffff1667ffffffffffffffff16815260200190815260200160002060009054906101000a900473ffffffffffffffffffffffffffffffffffffffff16610ef0565b600360008767ffffffffffffffff1667ffffffffffffffff16815260200190815260200160002060009054906101000a900473ffffffffffffffffffffffffffffffffffffffff1673ffffffffffffffffffffffffffffffffffffffff166367e1d50486868686600260008d67ffffffffffffffff1667ffffffffffffffff1681526020019081526020016000206040518663ffffffff1660e01b815260040161079095949392919061269c565b602060405180830381865afa1580156107ad573d6000803e3d6000fd5b505050506040513d601f19601f820116820180604052508101906107d1919061272b565b610810576040517f08c379a0000000000000000000000000000000000000000000000000000000008152600401610807906127a4565b60405180910390fd5b60018060003373ffffffffffffffffffffffffffffffffffffffff1673ffffffffffffffffffffffffffffffffffffffff16815260200190815260200160002060008867ffffffffffffffff1667ffffffffffffffff16815260200190815260200160002060006101000a81548160ff0219169083151502179055506108de8686600360008a67ffffffffffffffff1667ffffffffffffffff16815260200190815260200160002060009054906101000a900473ffffffffffffffffffffffffffffffffffffffff16611000565b6001905095945050505050565b6108f36114ce565b600260008367ffffffffffffffff1667ffffffffffffffff1681526020019081526020016000206040518060a00160405290816000820154815260200160018201548152602001600282015481526020016003820180548060200260200160405190810160405280929190818152602001828054801561099257602002820191906000526020600020905b81548152602001906001019080831161097e575b505050505081526020016004820180546109ab90612149565b80601f01602080910402602001604051908101604052809291908181526020018280546109d790612149565b8015610a245780601f106109f957610100808354040283529160200191610a24565b820191906000526020600020905b815481529060010190602001808311610a0757829003601f168201915b5050505050815250509050919050565b60066020528060005260406000206000915090505481565b60048181548110610a5c57600080fd5b9060005260206000209060049182820401919006600802915054906101000a900467ffffffffffffffff1681565b610a92610dae565b600073ffffffffffffffffffffffffffffffffffffffff168173ffffffffffffffffffffffffffffffffffffffff1603610b01576040517f08c379a0000000000000000000000000000000000000000000000000000000008152600401610af890612836565b60405180910390fd5b610b0a81610e2c565b50565b6000610b17610dae565b600073ffffffffffffffffffffffffffffffffffffffff16600360008667ffffffffffffffff1667ffffffffffffffff16815260200190815260200160002060009054906101000a900473ffffffffffffffffffffffffffffffffffffffff1673ffffffffffffffffffffffffffffffffffffffff1603610be95760048490806001815401808255809150506001900390600052602060002090600491828204019190066008029091909190916101000a81548167ffffffffffffffff021916908367ffffffffffffffff1602179055505b8160600151600260008667ffffffffffffffff1667ffffffffffffffff1681526020019081526020016000206003019080519060200190610c2b9291906114fd565b508160400151600260008667ffffffffffffffff1667ffffffffffffffff168152602001908152602001600020600201819055508160800151600260008667ffffffffffffffff1667ffffffffffffffff1681526020019081526020016000206004019081610c9a91906129e3565b508160200151600260008667ffffffffffffffff1667ffffffffffffffff168152602001908152602001600020600101819055508160000151600260008667ffffffffffffffff1667ffffffffffffffff168152602001908152602001600020600001819055508160800151600260008667ffffffffffffffff1667ffffffffffffffff1681526020019081526020016000206004019081610d3c91906129e3565b5082600360008667ffffffffffffffff1667ffffffffffffffff16815260200190815260200160002060006101000a81548173ffffffffffffffffffffffffffffffffffffffff021916908373ffffffffffffffffffffffffffffffffffffffff160217905550600190509392505050565b610db66112ed565b73ffffffffffffffffffffffffffffffffffffffff16610dd4610429565b73ffffffffffffffffffffffffffffffffffffffff1614610e2a576040517f08c379a0000000000000000000000000000000000000000000000000000000008152600401610e2190612b01565b60405180910390fd5b565b60008060009054906101000a900473ffffffffffffffffffffffffffffffffffffffff169050816000806101000a81548173ffffffffffffffffffffffffffffffffffffffff021916908373ffffffffffffffffffffffffffffffffffffffff1602179055508173ffffffffffffffffffffffffffffffffffffffff168173ffffffffffffffffffffffffffffffffffffffff167f8be0079c531659141344cd1fd0a4f28419497f9722a3daafe3b4186f6b6457e060405160405180910390a35050565b6000610f83838373ffffffffffffffffffffffffffffffffffffffff16639f442afa6040518163ffffffff1660e01b8152600401602060405180830381865afa158015610f41573d6000803e3d6000fd5b505050506040513d601f19601f82011682018060405250810190610f659190612b36565b81518110610f7657610f75612b63565b5b60200260200101516112f5565b90508073ffffffffffffffffffffffffffffffffffffffff16610fa46112ed565b73ffffffffffffffffffffffffffffffffffffffff1614610ffa576040517f08c379a0000000000000000000000000000000000000000000000000000000008152600401610ff190612c04565b60405180910390fd5b50505050565b600167ffffffffffffffff168367ffffffffffffffff1614801561106a575060006006600061102d6112ed565b73ffffffffffffffffffffffffffffffffffffffff1673ffffffffffffffffffffffffffffffffffffffff16815260200190815260200160002054145b6110a9576040517f08c379a00000000000000000000000000000000000000000000000000000000081526004016110a090612c96565b60405180910390fd5b6000828273ffffffffffffffffffffffffffffffffffffffff16639f442afa6040518163ffffffff1660e01b8152600401602060405180830381865afa1580156110f7573d6000803e3d6000fd5b505050506040513d601f19601f8201168201806040525081019061111b9190612b36565b8151811061112c5761112b612b63565b5b60200260200101519050600073ffffffffffffffffffffffffffffffffffffffff166005600083815260200190815260200160002060009054906101000a900473ffffffffffffffffffffffffffffffffffffffff1673ffffffffffffffffffffffffffffffffffffffff16036112e757600760009054906101000a900473ffffffffffffffffffffffffffffffffffffffff1673ffffffffffffffffffffffffffffffffffffffff166323b872dd30336008546040518463ffffffff1660e01b81526004016111fe93929190612cb6565b6020604051808303816000875af115801561121d573d6000803e3d6000fd5b505050506040513d601f19601f82011682018060405250810190611241919061272b565b50806006600061124f6112ed565b73ffffffffffffffffffffffffffffffffffffffff1673ffffffffffffffffffffffffffffffffffffffff168152602001908152602001600020819055506112956112ed565b6005600083815260200190815260200160002060006101000a81548173ffffffffffffffffffffffffffffffffffffffff021916908373ffffffffffffffffffffffffffffffffffffffff1602179055505b50505050565b600033905090565b600061131061130b61130684611317565b611463565b6114c0565b9050919050565b600081905060087eff00ff00ff00ff00ff00ff00ff00ff00ff00ff00ff00ff00ff00ff00ff00ff8216901b60087fff00ff00ff00ff00ff00ff00ff00ff00ff00ff00ff00ff00ff00ff00ff00ff008316901c17905060107dffff0000ffff0000ffff0000ffff0000ffff0000ffff0000ffff0000ffff8216901b60107fffff0000ffff0000ffff0000ffff0000ffff0000ffff0000ffff0000ffff00008316901c17905060207bffffffff00000000ffffffff00000000ffffffff00000000ffffffff8216901b60207fffffffff00000000ffffffff00000000ffffffff00000000ffffffff000000008316901c179050604077ffffffffffffffff0000000000000000ffffffffffffffff8216901b60407fffffffffffffffff0000000000000000ffffffffffffffff00000000000000008316901c179050608081901b608082901c179050919050565b6060602067ffffffffffffffff8111156114805761147f6119d8565b5b6040519080825280601f01601f1916602001820160405280156114b25781602001600182028036833780820191505090505b509050816020820152919050565b600060148201519050919050565b6040518060a0016040528060008152602001600081526020016000815260200160608152602001606081525090565b828054828255906000526020600020908101928215611539579160200282015b8281111561153857825182559160200191906001019061151d565b5b509050611546919061154a565b5090565b5b8082111561156357600081600090555060010161154b565b5090565b6000604051905090565b600080fd5b600080fd5b6000819050919050565b61158e8161157b565b811461159957600080fd5b50565b6000813590506115ab81611585565b92915050565b6000602082840312156115c7576115c6611571565b5b60006115d58482850161159c565b91505092915050565b600073ffffffffffffffffffffffffffffffffffffffff82169050919050565b6000611609826115de565b9050919050565b611619816115fe565b82525050565b60006020820190506116346000830184611610565b92915050565b600081519050919050565b600082825260208201905092915050565b6000819050602082019050919050565b600067ffffffffffffffff82169050919050565b61168381611666565b82525050565b6000611695838361167a565b60208301905092915050565b6000602082019050919050565b60006116b98261163a565b6116c38185611645565b93506116ce83611656565b8060005b838110156116ff5781516116e68882611689565b97506116f1836116a1565b9250506001810190506116d2565b5085935050505092915050565b6000602082019050818103600083015261172681846116ae565b905092915050565b61173781611666565b82525050565b6000602082019050611752600083018461172e565b92915050565b6117618161157b565b82525050565b600060208201905061177c6000830184611758565b92915050565b61178b81611666565b811461179657600080fd5b50565b6000813590506117a881611782565b92915050565b6000602082840312156117c4576117c3611571565b5b60006117d284828501611799565b91505092915050565b600081519050919050565b600082825260208201905092915050565b60005b838110156118155780820151818401526020810190506117fa565b60008484015250505050565b6000601f19601f8301169050919050565b600061183d826117db565b61184781856117e6565b93506118578185602086016117f7565b61186081611821565b840191505092915050565b60006080820190506118806000830187611758565b61188d6020830186611758565b61189a6040830185611758565b81810360608301526118ac8184611832565b905095945050505050565b6000819050919050565b60006118dc6118d76118d2846115de565b6118b7565b6115de565b9050919050565b60006118ee826118c1565b9050919050565b6000611900826118e3565b9050919050565b611910816118f5565b82525050565b600060208201905061192b6000830184611907565b92915050565b61193a816115fe565b811461194557600080fd5b50565b60008135905061195781611931565b92915050565b6000806040838503121561197457611973611571565b5b600061198285828601611948565b925050602061199385828601611799565b9150509250929050565b60008115159050919050565b6119b28161199d565b82525050565b60006020820190506119cd60008301846119a9565b92915050565b600080fd5b7f4e487b7100000000000000000000000000000000000000000000000000000000600052604160045260246000fd5b611a1082611821565b810181811067ffffffffffffffff82111715611a2f57611a2e6119d8565b5b80604052505050565b6000611a42611567565b9050611a4e8282611a07565b919050565b600067ffffffffffffffff821115611a6e57611a6d6119d8565b5b602082029050602081019050919050565b600080fd5b6000611a97611a9284611a53565b611a38565b90508083825260208201905060208402830185811115611aba57611ab9611a7f565b5b835b81811015611ae35780611acf888261159c565b845260208401935050602081019050611abc565b5050509392505050565b600082601f830112611b0257611b016119d3565b5b8135611b12848260208601611a84565b91505092915050565b600067ffffffffffffffff821115611b3657611b356119d8565b5b602082029050919050565b6000611b54611b4f84611b1b565b611a38565b90508060208402830185811115611b6e57611b6d611a7f565b5b835b81811015611b975780611b83888261159c565b845260208401935050602081019050611b70565b5050509392505050565b600082601f830112611bb657611bb56119d3565b5b6002611bc3848285611b41565b91505092915050565b600067ffffffffffffffff821115611be757611be66119d8565b5b602082029050919050565b6000611c05611c0084611bcc565b611a38565b90508060408402830185811115611c1f57611c1e611a7f565b5b835b81811015611c485780611c348882611ba1565b845260208401935050604081019050611c21565b5050509392505050565b600082601f830112611c6757611c666119d3565b5b6002611c74848285611bf2565b91505092915050565b60008060008060006101408688031215611c9a57611c99611571565b5b6000611ca888828901611799565b955050602086013567ffffffffffffffff811115611cc957611cc8611576565b5b611cd588828901611aed565b9450506040611ce688828901611ba1565b9350506080611cf788828901611c52565b925050610100611d0988828901611ba1565b9150509295509295909350565b611d1f8161157b565b82525050565b600081519050919050565b600082825260208201905092915050565b6000819050602082019050919050565b6000611d5d8383611d16565b60208301905092915050565b6000602082019050919050565b6000611d8182611d25565b611d8b8185611d30565b9350611d9683611d41565b8060005b83811015611dc7578151611dae8882611d51565b9750611db983611d69565b925050600181019050611d9a565b5085935050505092915050565b600082825260208201905092915050565b6000611df0826117db565b611dfa8185611dd4565b9350611e0a8185602086016117f7565b611e1381611821565b840191505092915050565b600060a083016000830151611e366000860182611d16565b506020830151611e496020860182611d16565b506040830151611e5c6040860182611d16565b5060608301518482036060860152611e748282611d76565b91505060808301518482036080860152611e8e8282611de5565b9150508091505092915050565b60006020820190508181036000830152611eb58184611e1e565b905092915050565b600060208284031215611ed357611ed2611571565b5b6000611ee184828501611948565b91505092915050565b6000611ef5826115fe565b9050919050565b611f0581611eea565b8114611f1057600080fd5b50565b600081359050611f2281611efc565b92915050565b600080fd5b600080fd5b600080fd5b600067ffffffffffffffff821115611f5257611f516119d8565b5b611f5b82611821565b9050602081019050919050565b82818337600083830152505050565b6000611f8a611f8584611f37565b611a38565b905082815260208101848484011115611fa657611fa5611f32565b5b611fb1848285611f68565b509392505050565b600082601f830112611fce57611fcd6119d3565b5b8135611fde848260208601611f77565b91505092915050565b600060a08284031215611ffd57611ffc611f28565b5b61200760a0611a38565b905060006120178482850161159c565b600083015250602061202b8482850161159c565b602083015250604061203f8482850161159c565b604083015250606082013567ffffffffffffffff81111561206357612062611f2d565b5b61206f84828501611aed565b606083015250608082013567ffffffffffffffff81111561209357612092611f2d565b5b61209f84828501611fb9565b60808301525092915050565b6000806000606084860312156120c4576120c3611571565b5b60006120d286828701611799565b93505060206120e386828701611f13565b925050604084013567ffffffffffffffff81111561210457612103611576565b5b61211086828701611fe7565b9150509250925092565b7f4e487b7100000000000000000000000000000000000000000000000000000000600052602260045260246000fd5b6000600282049050600182168061216157607f821691505b6020821081036121745761217361211a565b5b50919050565b7f76616c696461746f72206973206e6f742073657420666f72207468697320726560008201527f7175657374206964000000000000000000000000000000000000000000000000602082015250565b60006121d66028836117e6565b91506121e18261217a565b604082019050919050565b60006020820190508181036000830152612205816121c9565b9050919050565b7f7175657279206973206e6f742073657420666f7220746869732072657175657360008201527f7420696400000000000000000000000000000000000000000000000000000000602082015250565b60006122686024836117e6565b91506122738261220c565b604082019050919050565b600060208201905081810360008301526122978161225b565b9050919050565b600082825260208201905092915050565b60006122ba82611d25565b6122c4818561229e565b93506122cf83611d41565b8060005b838110156123005781516122e78882611d51565b97506122f283611d69565b9250506001810190506122d3565b5085935050505092915050565b600060029050919050565b600081905092915050565b6000819050919050565b6000602082019050919050565b6123438161230d565b61234d8184612318565b925061235882612323565b8060005b838110156123895781516123708782611d51565b965061237b8361232d565b92505060018101905061235c565b505050505050565b600060029050919050565b600081905092915050565b6000819050919050565b600081905092915050565b6123c58161230d565b6123cf81846123b1565b92506123da82612323565b8060005b8381101561240b5781516123f28782611d51565b96506123fd8361232d565b9250506001810190506123de565b505050505050565b600061241f83836123bc565b60408301905092915050565b6000602082019050919050565b61244181612391565b61244b818461239c565b9250612456826123a7565b8060005b8381101561248757815161246e8782612413565b96506124798361242b565b92505060018101905061245a565b505050505050565b60008160001c9050919050565b6000819050919050565b60006124b96124b48361248f565b61249c565b9050919050565b600081549050919050565b60008190508160005260206000209050919050565b60006124ec82546124a6565b9050919050565b6000600182019050919050565b600061250b826124c0565b6125158185611d30565b9350612520836124cb565b8060005b8381101561255857612535826124e0565b61253f8882611d51565b975061254a836124f3565b925050600181019050612524565b5085935050505092915050565b60008190508160005260206000209050919050565b6000815461258781612149565b6125918186611dd4565b945060018216600081146125ac57600181146125c2576125f5565b60ff1983168652811515602002860193506125f5565b6125cb85612565565b60005b838110156125ed578154818901526001820191506020810190506125ce565b808801955050505b50505092915050565b600060a083016000808401549050612615816124a6565b6126226000870182611d16565b5060018401549050612633816124a6565b6126406020870182611d16565b5060028401549050612651816124a6565b61265e6040870182611d16565b506003840185830360608701526126758382612500565b92505060048401858303608087015261268e838261257a565b925050819250505092915050565b60006101408201905081810360008301526126b781886122af565b90506126c6602083018761233a565b6126d36060830186612438565b6126e060e083018561233a565b8181036101208301526126f381846125fe565b90509695505050505050565b6127088161199d565b811461271357600080fd5b50565b600081519050612725816126ff565b92915050565b60006020828403121561274157612740611571565b5b600061274f84828501612716565b91505092915050565b7f70726f6f6620726573706f6e7365206973206e6f742076616c69640000000000600082015250565b600061278e601b836117e6565b915061279982612758565b602082019050919050565b600060208201905081810360008301526127bd81612781565b9050919050565b7f4f776e61626c653a206e6577206f776e657220697320746865207a65726f206160008201527f6464726573730000000000000000000000000000000000000000000000000000602082015250565b60006128206026836117e6565b915061282b826127c4565b604082019050919050565b6000602082019050818103600083015261284f81612813565b9050919050565b60006020601f8301049050919050565b600082821b905092915050565b6000600883026128a37fffffffffffffffffffffffffffffffffffffffffffffffffffffffffffffffff82612866565b6128ad8683612866565b95508019841693508086168417925050509392505050565b60006128e06128db6128d68461157b565b6118b7565b61157b565b9050919050565b6000819050919050565b6128fa836128c5565b61290e612906826128e7565b848454612873565b825550505050565b600090565b612923612916565b61292e8184846128f1565b505050565b5b818110156129525761294760008261291b565b600181019050612934565b5050565b601f8211156129975761296881612565565b61297184612856565b81016020851015612980578190505b61299461298c85612856565b830182612933565b50505b505050565b600082821c905092915050565b60006129ba6000198460080261299c565b1980831691505092915050565b60006129d383836129a9565b9150826002028217905092915050565b6129ec826117db565b67ffffffffffffffff811115612a0557612a046119d8565b5b612a0f8254612149565b612a1a828285612956565b600060209050601f831160018114612a4d5760008415612a3b578287015190505b612a4585826129c7565b865550612aad565b601f198416612a5b86612565565b60005b82811015612a8357848901518255600182019150602085019450602081019050612a5e565b86831015612aa05784890151612a9c601f8916826129a9565b8355505b6001600288020188555050505b505050505050565b7f4f776e61626c653a2063616c6c6572206973206e6f7420746865206f776e6572600082015250565b6000612aeb6020836117e6565b9150612af682612ab5565b602082019050919050565b60006020820190508181036000830152612b1a81612ade565b9050919050565b600081519050612b3081611585565b92915050565b600060208284031215612b4c57612b4b611571565b5b6000612b5a84828501612b21565b91505092915050565b7f4e487b7100000000000000000000000000000000000000000000000000000000600052603260045260246000fd5b7f6164647265737320696e2070726f6f66206973206e6f7420612073656e64657260008201527f2061646472657373000000000000000000000000000000000000000000000000602082015250565b6000612bee6028836117e6565b9150612bf982612b92565b604082019050919050565b60006020820190508181036000830152612c1d81612be1565b9050919050565b7f70726f6f662063616e206e6f74206265207375626d6974746564206d6f72652060008201527f7468616e206f6e63650000000000000000000000000000000000000000000000602082015250565b6000612c806029836117e6565b9150612c8b82612c24565b604082019050919050565b60006020820190508181036000830152612caf81612c73565b9050919050565b6000606082019050612ccb6000830186611610565b612cd86020830185611610565b612ce56040830184611758565b94935050505056fea2646970667358221220a982f43348b808ba83ea68bde5bd7361c7cc36a4496c9300ac618e57068ddabd64736f6c63430008110033",
  "linkReferences": {},
  "deployedLinkReferences": {}
}