{
  "_format": "hh-sol-artifact-1",
  "contractName": "DropToken",
  "sourceName": "contracts/DropToken.sol",
  "abi": [
    {
      "inputs": [],
      "stateMutability": "nonpayable",
      "type": "constructor"
    },
    {
      "anonymous": false,
      "inputs": [
        {
          "indexed": true,
          "internalType": "address",
          "name": "owner",
          "type": "address"
        },
        {
          "indexed": true,
          "internalType": "address",
          "name": "spender",
          "type": "address"
        },
        {
          "indexed": false,
          "internalType": "uint256",
          "name": "value",
          "type": "uint256"
        }
      ],
      "name": "Approval",
      "type": "event"
    },
    {
      "anonymous": false,
      "inputs": [
        {
          "indexed": true,
          "internalType": "address",
          "name": "previousOwner",
          "type": "address"
        },
        {
          "indexed": true,
          "internalType": "address",
          "name": "newOwner",
          "type": "address"
        }
      ],
      "name": "OwnershipTransferred",
      "type": "event"
    },
    {
      "anonymous": false,
      "inputs": [
        {
          "indexed": false,
          "internalType": "uint256",
          "name": "id",
          "type": "uint256"
        }
      ],
      "name": "Snapshot",
      "type": "event"
    },
    {
      "anonymous": false,
      "inputs": [
        {
          "indexed": true,
          "internalType": "address",
          "name": "from",
          "type": "address"
        },
        {
          "indexed": true,
          "internalType": "address",
          "name": "to",
          "type": "address"
        },
        {
          "indexed": false,
          "internalType": "uint256",
          "name": "value",
          "type": "uint256"
        }
      ],
      "name": "Transfer",
      "type": "event"
    },
    {
      "inputs": [
        {
          "internalType": "address",
          "name": "owner",
          "type": "address"
        },
        {
          "internalType": "address",
          "name": "spender",
          "type": "address"
        }
      ],
      "name": "allowance",
      "outputs": [
        {
          "internalType": "uint256",
          "name": "",
          "type": "uint256"
        }
      ],
      "stateMutability": "view",
      "type": "function"
    },
    {
      "inputs": [
        {
          "internalType": "address",
          "name": "spender",
          "type": "address"
        },
        {
          "internalType": "uint256",
          "name": "amount",
          "type": "uint256"
        }
      ],
      "name": "approve",
      "outputs": [
        {
          "internalType": "bool",
          "name": "",
          "type": "bool"
        }
      ],
      "stateMutability": "nonpayable",
      "type": "function"
    },
    {
      "inputs": [
        {
          "internalType": "address",
          "name": "account",
          "type": "address"
        }
      ],
      "name": "balanceOf",
      "outputs": [
        {
          "internalType": "uint256",
          "name": "",
          "type": "uint256"
        }
      ],
      "stateMutability": "view",
      "type": "function"
    },
    {
      "inputs": [
        {
          "internalType": "address",
          "name": "account",
          "type": "address"
        },
        {
          "internalType": "uint256",
          "name": "snapshotId",
          "type": "uint256"
        }
      ],
      "name": "balanceOfAt",
      "outputs": [
        {
          "internalType": "uint256",
          "name": "",
          "type": "uint256"
        }
      ],
      "stateMutability": "view",
      "type": "function"
    },
    {
      "inputs": [
        {
          "internalType": "uint256",
          "name": "amount",
          "type": "uint256"
        }
      ],
      "name": "burn",
      "outputs": [],
      "stateMutability": "nonpayable",
      "type": "function"
    },
    {
      "inputs": [
        {
          "internalType": "address",
          "name": "account",
          "type": "address"
        },
        {
          "internalType": "uint256",
          "name": "amount",
          "type": "uint256"
        }
      ],
      "name": "burnFrom",
      "outputs": [],
      "stateMutability": "nonpayable",
      "type": "function"
    },
    {
      "inputs": [],
      "name": "decimals",
      "outputs": [
        {
          "internalType": "uint8",
          "name": "",
          "type": "uint8"
        }
      ],
      "stateMutability": "view",
      "type": "function"
    },
    {
      "inputs": [
        {
          "internalType": "address",
          "name": "spender",
          "type": "address"
        },
        {
          "internalType": "uint256",
          "name": "subtractedValue",
          "type": "uint256"
        }
      ],
      "name": "decreaseAllowance",
      "outputs": [
        {
          "internalType": "bool",
          "name": "",
          "type": "bool"
        }
      ],
      "stateMutability": "nonpayable",
      "type": "function"
    },
    {
      "inputs": [
        {
          "internalType": "address",
          "name": "spender",
          "type": "address"
        },
        {
          "internalType": "uint256",
          "name": "addedValue",
          "type": "uint256"
        }
      ],
      "name": "increaseAllowance",
      "outputs": [
        {
          "internalType": "bool",
          "name": "",
          "type": "bool"
        }
      ],
      "stateMutability": "nonpayable",
      "type": "function"
    },
    {
      "inputs": [
        {
          "internalType": "address",
          "name": "to",
          "type": "address"
        },
        {
          "internalType": "uint256",
          "name": "amount",
          "type": "uint256"
        }
      ],
      "name": "mint",
      "outputs": [],
      "stateMutability": "nonpayable",
      "type": "function"
    },
    {
      "inputs": [],
      "name": "name",
      "outputs": [
        {
          "internalType": "string",
          "name": "",
          "type": "string"
        }
      ],
      "stateMutability": "view",
      "type": "function"
    },
    {
      "inputs": [],
      "name": "owner",
      "outputs": [
        {
          "internalType": "address",
          "name": "",
          "type": "address"
        }
      ],
      "stateMutability": "view",
      "type": "function"
    },
    {
      "inputs": [],
      "name": "renounceOwnership",
      "outputs": [],
      "stateMutability": "nonpayable",
      "type": "function"
    },
    {
      "inputs": [],
      "name": "snapshot",
      "outputs": [],
      "stateMutability": "nonpayable",
      "type": "function"
    },
    {
      "inputs": [],
      "name": "symbol",
      "outputs": [
        {
          "internalType": "string",
          "name": "",
          "type": "string"
        }
      ],
      "stateMutability": "view",
      "type": "function"
    },
    {
      "inputs": [],
      "name": "totalSupply",
      "outputs": [
        {
          "internalType": "uint256",
          "name": "",
          "type": "uint256"
        }
      ],
      "stateMutability": "view",
      "type": "function"
    },
    {
      "inputs": [
        {
          "internalType": "uint256",
          "name": "snapshotId",
          "type": "uint256"
        }
      ],
      "name": "totalSupplyAt",
      "outputs": [
        {
          "internalType": "uint256",
          "name": "",
          "type": "uint256"
        }
      ],
      "stateMutability": "view",
      "type": "function"
    },
    {
      "inputs": [
        {
          "internalType": "address",
          "name": "to",
          "type": "address"
        },
        {
          "internalType": "uint256",
          "name": "amount",
          "type": "uint256"
        }
      ],
      "name": "transfer",
      "outputs": [
        {
          "internalType": "bool",
          "name": "",
          "type": "bool"
        }
      ],
      "stateMutability": "nonpayable",
      "type": "function"
    },
    {
      "inputs": [
        {
          "internalType": "address",
          "name": "from",
          "type": "address"
        },
        {
          "internalType": "address",
          "name": "to",
          "type": "address"
        },
        {
          "internalType": "uint256",
          "name": "amount",
          "type": "uint256"
        }
      ],
      "name": "transferFrom",
      "outputs": [
        {
          "internalType": "bool",
          "name": "",
          "type": "bool"
        }
      ],
      "stateMutability": "nonpayable",
      "type": "function"
    },
    {
      "inputs": [
        {
          "internalType": "address",
          "name": "newOwner",
          "type": "address"
        }
      ],
      "name": "transferOwnership",
      "outputs": [],
      "stateMutability": "nonpayable",
      "type": "function"
    }
  ],
  "bytecode": "0x60806040523480156200001157600080fd5b5060405180604001604052806009815260200168223937b82a37b5b2b760b91b8152506040518060400160405280600381526020016211141560ea1b815250816003908162000061919062000437565b50600462000070828262000437565b5050506200008d62000087620000bd60201b60201c565b620000c1565b620000b733620000a06012600a62000618565b620000b19064e8d4a5100062000630565b62000113565b6200068c565b3390565b600980546001600160a01b038381166001600160a01b0319831681179093556040519116919082907f8be0079c531659141344cd1fd0a4f28419497f9722a3daafe3b4186f6b6457e090600090a35050565b6001600160a01b0382166200016e5760405162461bcd60e51b815260206004820152601f60248201527f45524332303a206d696e7420746f20746865207a65726f206164647265737300604482015260640160405180910390fd5b6200017c6000838362000209565b80600260008282546200019091906200064a565b90915550506001600160a01b03821660009081526020819052604081208054839290620001bf9084906200064a565b90915550506040518181526001600160a01b038316906000907fddf252ad1be2c89b69c2b068fc378daa952ba7f163c4a11628f55a4df523b3ef9060200160405180910390a35050565b620002218383836200022660201b620005d21760201c565b505050565b6200023e8383836200022160201b620005f11760201c565b6001600160a01b038316620002625762000258826200028d565b62000221620002c5565b6001600160a01b0382166200027c5762000258836200028d565b62000287836200028d565b62000221825b6001600160a01b03811660009081526005602090815260408083209183905290912054620002c29190620002d7565b620002d7565b50565b620002d56006620002bc60025490565b565b6000620002e362000326565b905080620002f18462000344565b101562000221578254600180820185556000858152602080822090930193909355938401805494850181558252902090910155565b60006200033f60086200038f60201b6200061f1760201c565b905090565b805460009081036200035857506000919050565b815482906200036a9060019062000660565b815481106200037d576200037d62000676565b90600052602060002001549050919050565b5490565b634e487b7160e01b600052604160045260246000fd5b600181811c90821680620003be57607f821691505b602082108103620003df57634e487b7160e01b600052602260045260246000fd5b50919050565b601f8211156200022157600081815260208120601f850160051c810160208610156200040e5750805b601f850160051c820191505b818110156200042f578281556001016200041a565b505050505050565b81516001600160401b0381111562000453576200045362000393565b6200046b81620004648454620003a9565b84620003e5565b602080601f831160018114620004a357600084156200048a5750858301515b600019600386901b1c1916600185901b1785556200042f565b600085815260208120601f198616915b82811015620004d457888601518255948401946001909101908401620004b3565b5085821015620004f35787850151600019600388901b60f8161c191681555b5050505050600190811b01905550565b634e487b7160e01b600052601160045260246000fd5b600181815b808511156200055a5781600019048211156200053e576200053e62000503565b808516156200054c57918102915b93841c93908002906200051e565b509250929050565b600082620005735750600162000612565b81620005825750600062000612565b81600181146200059b5760028114620005a657620005c6565b600191505062000612565b60ff841115620005ba57620005ba62000503565b50506001821b62000612565b5060208310610133831016604e8410600b8410161715620005eb575081810a62000612565b620005f7838362000519565b80600019048211156200060e576200060e62000503565b0290505b92915050565b60006200062960ff84168362000562565b9392505050565b808202811582820484141762000612576200061262000503565b8082018082111562000612576200061262000503565b8181038181111562000612576200061262000503565b634e487b7160e01b600052603260045260246000fd5b6111c7806200069c6000396000f3fe608060405234801561001057600080fd5b506004361061012c5760003560e01c8063715018a6116100ad578063981b24d011610071578063981b24d014610263578063a457c2d714610276578063a9059cbb14610289578063dd62ed3e1461029c578063f2fde38b146102af57600080fd5b8063715018a61461021d57806379cc6790146102255780638da5cb5b1461023857806395d89b41146102535780639711715a1461025b57600080fd5b806339509351116100f457806339509351146101a657806340c10f19146101b957806342966c68146101ce5780634ee2cd7e146101e157806370a08231146101f457600080fd5b806306fdde0314610131578063095ea7b31461014f57806318160ddd1461017257806323b872dd14610184578063313ce56714610197575b600080fd5b6101396102c2565b6040516101469190610fb1565b60405180910390f35b61016261015d366004611016565b610354565b6040519015158152602001610146565b6002545b604051908152602001610146565b610162610192366004611040565b61036e565b60405160128152602001610146565b6101626101b4366004611016565b610392565b6101cc6101c7366004611016565b6103b4565b005b6101cc6101dc36600461107c565b6103ca565b6101766101ef366004611016565b6103d7565b610176610202366004611095565b6001600160a01b031660009081526020819052604090205490565b6101cc610430565b6101cc610233366004611016565b610444565b6009546040516001600160a01b039091168152602001610146565b610139610459565b6101cc610468565b61017661027136600461107c565b610478565b610162610284366004611016565b6104a3565b610162610297366004611016565b610523565b6101766102aa3660046110b0565b610531565b6101cc6102bd366004611095565b61055c565b6060600380546102d1906110e3565b80601f01602080910402602001604051908101604052809291908181526020018280546102fd906110e3565b801561034a5780601f1061031f5761010080835404028352916020019161034a565b820191906000526020600020905b81548152906001019060200180831161032d57829003601f168201915b5050505050905090565b600033610362818585610623565b60019150505b92915050565b60003361037c858285610747565b6103878585856107c1565b506001949350505050565b6000336103628185856103a58383610531565b6103af9190611133565b610623565b6103bc61099a565b6103c682826109f4565b5050565b6103d43382610adf565b50565b6001600160a01b0382166000908152600560205260408120819081906103fe908590610c39565b9150915081610425576001600160a01b038516600090815260208190526040902054610427565b805b95945050505050565b61043861099a565b6104426000610d2f565b565b61044f823383610747565b6103c68282610adf565b6060600480546102d1906110e3565b61047061099a565b6103d4610d81565b6000806000610488846006610c39565b91509150816104995760025461049b565b805b949350505050565b600033816104b18286610531565b9050838110156105165760405162461bcd60e51b815260206004820152602560248201527f45524332303a2064656372656173656420616c6c6f77616e63652062656c6f77604482015264207a65726f60d81b60648201526084015b60405180910390fd5b6103878286868403610623565b6000336103628185856107c1565b6001600160a01b03918216600090815260016020908152604080832093909416825291909152205490565b61056461099a565b6001600160a01b0381166105c95760405162461bcd60e51b815260206004820152602660248201527f4f776e61626c653a206e6577206f776e657220697320746865207a65726f206160448201526564647265737360d01b606482015260840161050d565b6103d481610d2f565b6001600160a01b0383166105f6576105e982610ddb565b6105f1610e0d565b505050565b6001600160a01b03821661060d576105e983610ddb565b61061683610ddb565b6105f182610ddb565b5490565b6001600160a01b0383166106855760405162461bcd60e51b8152602060048201526024808201527f45524332303a20617070726f76652066726f6d20746865207a65726f206164646044820152637265737360e01b606482015260840161050d565b6001600160a01b0382166106e65760405162461bcd60e51b815260206004820152602260248201527f45524332303a20617070726f766520746f20746865207a65726f206164647265604482015261737360f01b606482015260840161050d565b6001600160a01b0383811660008181526001602090815260408083209487168084529482529182902085905590518481527f8c5be1e5ebec7d5bd14f71427d1e84f3dd0314c0f7b2291e5b200ac8c7c3b925910160405180910390a3505050565b60006107538484610531565b905060001981146107bb57818110156107ae5760405162461bcd60e51b815260206004820152601d60248201527f45524332303a20696e73756666696369656e7420616c6c6f77616e6365000000604482015260640161050d565b6107bb8484848403610623565b50505050565b6001600160a01b0383166108255760405162461bcd60e51b815260206004820152602560248201527f45524332303a207472616e736665722066726f6d20746865207a65726f206164604482015264647265737360d81b606482015260840161050d565b6001600160a01b0382166108875760405162461bcd60e51b815260206004820152602360248201527f45524332303a207472616e7366657220746f20746865207a65726f206164647260448201526265737360e81b606482015260840161050d565b610892838383610e1b565b6001600160a01b0383166000908152602081905260409020548181101561090a5760405162461bcd60e51b815260206004820152602660248201527f45524332303a207472616e7366657220616d6f756e7420657863656564732062604482015265616c616e636560d01b606482015260840161050d565b6001600160a01b03808516600090815260208190526040808220858503905591851681529081208054849290610941908490611133565b92505081905550826001600160a01b0316846001600160a01b03167fddf252ad1be2c89b69c2b068fc378daa952ba7f163c4a11628f55a4df523b3ef8460405161098d91815260200190565b60405180910390a36107bb565b6009546001600160a01b031633146104425760405162461bcd60e51b815260206004820181905260248201527f4f776e61626c653a2063616c6c6572206973206e6f7420746865206f776e6572604482015260640161050d565b6001600160a01b038216610a4a5760405162461bcd60e51b815260206004820152601f60248201527f45524332303a206d696e7420746f20746865207a65726f206164647265737300604482015260640161050d565b610a5660008383610e1b565b8060026000828254610a689190611133565b90915550506001600160a01b03821660009081526020819052604081208054839290610a95908490611133565b90915550506040518181526001600160a01b038316906000907fddf252ad1be2c89b69c2b068fc378daa952ba7f163c4a11628f55a4df523b3ef9060200160405180910390a35050565b6001600160a01b038216610b3f5760405162461bcd60e51b815260206004820152602160248201527f45524332303a206275726e2066726f6d20746865207a65726f206164647265736044820152607360f81b606482015260840161050d565b610b4b82600083610e1b565b6001600160a01b03821660009081526020819052604090205481811015610bbf5760405162461bcd60e51b815260206004820152602260248201527f45524332303a206275726e20616d6f756e7420657863656564732062616c616e604482015261636560f01b606482015260840161050d565b6001600160a01b0383166000908152602081905260408120838303905560028054849290610bee908490611146565b90915550506040518281526000906001600160a01b038516907fddf252ad1be2c89b69c2b068fc378daa952ba7f163c4a11628f55a4df523b3ef9060200160405180910390a3505050565b60008060008411610c855760405162461bcd60e51b815260206004820152601660248201527504552433230536e617073686f743a20696420697320360541b604482015260640161050d565b610c8d610e26565b841115610cdc5760405162461bcd60e51b815260206004820152601d60248201527f4552433230536e617073686f743a206e6f6e6578697374656e74206964000000604482015260640161050d565b6000610ce88486610e36565b84549091508103610d00576000809250925050610d28565b6001846001018281548110610d1757610d17611159565b906000526020600020015492509250505b9250929050565b600980546001600160a01b038381166001600160a01b0319831681179093556040519116919082907f8be0079c531659141344cd1fd0a4f28419497f9722a3daafe3b4186f6b6457e090600090a35050565b6000610d91600880546001019055565b6000610d9b610e26565b90507f8030e83b04d87bef53480e26263266d6ca66863aa8506aca6f2559d18aa1cb6781604051610dce91815260200190565b60405180910390a1919050565b6001600160a01b038116600090815260056020908152604080832091839052909120546103d49190610efb565b610efb565b6104426006610e0860025490565b6105f18383836105d2565b6000610e3160085490565b905090565b81546000908103610e4957506000610368565b82546000905b80821015610ea5576000610e638383610f45565b905084868281548110610e7857610e78611159565b90600052602060002001541115610e9157809150610e9f565b610e9c816001611133565b92505b50610e4f565b600082118015610eda57508385610ebd600185611146565b81548110610ecd57610ecd611159565b9060005260206000200154145b15610ef357610eea600183611146565b92505050610368565b509050610368565b6000610f05610e26565b905080610f1184610f67565b10156105f1578254600180820185556000858152602080822090930193909355938401805494850181558252902090910155565b6000610f54600284841861116f565b610f6090848416611133565b9392505050565b80546000908103610f7a57506000919050565b81548290610f8a90600190611146565b81548110610f9a57610f9a611159565b90600052602060002001549050919050565b919050565b600060208083528351808285015260005b81811015610fde57858101830151858201604001528201610fc2565b506000604082860101526040601f19601f8301168501019250505092915050565b80356001600160a01b0381168114610fac57600080fd5b6000806040838503121561102957600080fd5b61103283610fff565b946020939093013593505050565b60008060006060848603121561105557600080fd5b61105e84610fff565b925061106c60208501610fff565b9150604084013590509250925092565b60006020828403121561108e57600080fd5b5035919050565b6000602082840312156110a757600080fd5b610f6082610fff565b600080604083850312156110c357600080fd5b6110cc83610fff565b91506110da60208401610fff565b90509250929050565b600181811c908216806110f757607f821691505b60208210810361111757634e487b7160e01b600052602260045260246000fd5b50919050565b634e487b7160e01b600052601160045260246000fd5b808201808211156103685761036861111d565b818103818111156103685761036861111d565b634e487b7160e01b600052603260045260246000fd5b60008261118c57634e487b7160e01b600052601260045260246000fd5b50049056fea2646970667358221220eb775bd41c8c89b4b18fd3db62f6e39b08987fffc9625f73668f44c47d5e1d3364736f6c63430008110033",
  "linkReferences": {},
  "deployedLinkReferences": {}
}